{
  "contractName": "SceneOuverte",
  "abi": [
    {
      "constant": false,
      "inputs": [
        {
          "internalType": "string",
          "name": "_nomDArtiste",
          "type": "string"
        }
      ],
      "name": "sInscrire",
      "outputs": [],
      "payable": false,
      "stateMutability": "nonpayable",
      "type": "function"
    },
    {
      "constant": false,
      "inputs": [],
      "name": "passerArtisteSuivant",
      "outputs": [],
      "payable": false,
      "stateMutability": "nonpayable",
      "type": "function"
    },
    {
      "constant": true,
      "inputs": [],
      "name": "getTour",
      "outputs": [
        {
          "internalType": "uint256",
          "name": "",
          "type": "uint256"
        }
      ],
      "payable": false,
      "stateMutability": "view",
      "type": "function"
    },
    {
      "constant": true,
      "inputs": [],
      "name": "artisteEncours",
      "outputs": [
        {
          "internalType": "string",
          "name": "",
          "type": "string"
        }
      ],
      "payable": false,
      "stateMutability": "view",
      "type": "function"
    }
  ],
  "bytecode": "0x6080604052600c805534801561001457600080fd5b506103a1806100246000396000f3fe608060405234801561001057600080fd5b506004361061004c5760003560e01c8063254b5678146100515780637cbd5bc3146100d457806388f3f380146100de578063d8984a7314610199575b600080fd5b6100596101b7565b6040518080602001828103825283818151815260200191508051906020019080838360005b8381101561009957808201518184015260208101905061007e565b50505050905090810190601f1680156100c65780820380516001836020036101000a031916815260200191505b509250505060405180910390f35b6100dc610267565b005b610197600480360360208110156100f457600080fd5b810190808035906020019064010000000081111561011157600080fd5b82018360208201111561012357600080fd5b8035906020019184600183028401116401000000008311171561014557600080fd5b91908080601f016020809104026020016040519081016040528093929190818152602001838380828437600081840152601f19601f82011690508083019250505050505050919291929050505061027a565b005b6101a16102bd565b6040518082815260200191505060405180910390f35b60606000600d54600c81106101c857fe5b018054600181600116156101000203166002900480601f01602080910402602001604051908101604052809291908181526020018280546001816001161561010002031660029004801561025d5780601f106102325761010080835404028352916020019161025d565b820191906000526020600020905b81548152906001019060200180831161024057829003601f168201915b5050505050905090565b6001600d60008282540192505081905550565b6000600c5411156102ba57806000600c54600c03600c811061029857fe5b0190805190602001906102ac9291906102c7565b506001600c5403600c819055505b50565b6000600d54905090565b828054600181600116156101000203166002900490600052602060002090601f016020900481019282601f1061030857805160ff1916838001178555610336565b82800160010185558215610336579182015b8281111561033557825182559160200191906001019061031a565b5b5090506103439190610347565b5090565b61036991905b8082111561036557600081600090555060010161034d565b5090565b9056fea265627a7a723158207e121621375fc7a96c39b6220a9e1441ad520da8b687bc54b62e9c8137c5bbb264736f6c634300050c0032",
  "source": "pragma solidity ^0.5.11;\n\ncontract SceneOuverte {\n    string[12] passagesArtistes;\n    uint creneauxLibres = 12;\n    uint tour;\n\n    function sInscrire(string memory _nomDArtiste) public {\n        if(creneauxLibres > 0){\n            passagesArtistes[12-creneauxLibres] = _nomDArtiste;\n            creneauxLibres = creneauxLibres - 1; // creneauxLibres -= 1\n        }\n    }\n\n    function passerArtisteSuivant() public {\n        tour += 1;\n    }\n\n    function getTour() public view returns (uint) {\n        return tour;\n    }\n\n    function artisteEncours() public view returns (string memory) {\n        return passagesArtistes[tour];\n    }\n}",
  "sourcePath": "/home/eberhartp/alyra/exercises/semaine05/scene-ouverte-truffle-react/contracts/SceneOuverte.sol",
  "compiler": {
    "name": "solc",
    "version": "0.5.12+commit.7709ece9.Emscripten.clang"
  },
  "schemaVersion": "3.0.19",
  "updatedAt": "2019-11-13T14:25:17.307Z",
  "devdoc": {
    "methods": {}
  },
  "userdoc": {
    "methods": {}
  }
}